:100000000C9462000C948A000C948A000C948A0070
:100010000C948A000C948A000C948A000C948A0038
:100020000C948A000C948A000C948A000C948A0028
:100030000C948A000C948A000C948A000C948A0018
:100040000C9413060C948A000C94E1050C94BB05E7
:100050000C948A000C948A000C948A000C948A00F8
:100060000C945D060C948A00000000002400270018
:100070002A0000000000250028002B0000000000DE
:1000800023002600290004040404040404040202DA
:100090000202020203030303030301020408102007
:1000A0004080010204081020010204081020000012
:1000B0000008000201000003040700000000000027
:1000C00000007C0711241FBECFEFD8E0DEBFCDBFFC
:1000D00011E0A0E0B1E0EAE1F8E102C005900D9284
:1000E000A636B107D9F722E0A6E6B1E001C01D921D
:1000F000A83EB207E1F710E0C2E6D0E004C02197C5
:10010000FE010E94050CC136D107C9F70E94C40741
:100110000C940B0C0C94000080E480937C00809184
:100120007A00806480937A0080917A0086FDFCCF0B
:100130008091780090917900089508950895AF9284
:10014000BF92CF92DF92EF92FF920F931F93CF93C4
:10015000DF936C017B018B01040F151FEB015E0126
:10016000AE18BF08C017D10759F06991D601ED91BB
:10017000FC910190F081E02DC6010995892B79F75A
:10018000C501DF91CF911F910F91FF90EF90DF900C
:10019000CF90BF90AF900895FC01538D448D252FD3
:1001A00030E0842F90E0821B930B541710F0CF9611
:1001B000089501970895FC01918D828D981761F043
:1001C000A28DAE0FBF2FB11D5D968C91928D9F5F5A
:1001D0009F73928F90E008958FEF9FEF0895FC0139
:1001E000918D828D981731F0828DE80FF11D858DEC
:1001F00090E008958FEF9FEF0895FC01918D228D7F
:10020000892F90E0805C9F4F821B91098F73992703
:10021000089583E392E00E94FD0021E0892B09F418
:1002200020E0822F089580E090E0892B29F00E9441
:10023000090181110C9400000895FC01A48DA80F00
:10024000B92FB11DA35ABF4F2C91848D90E0019618
:100250008F739927848FA689B7892C93A089B18938
:100260008C91837080648C93938D848D981306C0D9
:100270000288F389E02D80818F7D80830895EF923D
:10028000FF920F931F93CF93DF93EC0181E0888F50
:100290009B8D8C8D98131AC0E889F989808185FF20
:1002A00015C09FB7F894EE89FF896083E889F989C2
:1002B00080818370806480839FBF81E090E0DF91C4
:1002C000CF911F910F91FF90EF900895F62E0B8D17
:1002D00010E00F5F1F4F0F731127E02E8C8D8E11D2
:1002E0000CC00FB607FCFACFE889F989808185FF39
:1002F000F5CFCE010E941D01F1CFEB8DEC0FFD2F4C
:10030000F11DE35AFF4FF0829FB7F8940B8FEA89F3
:10031000FB8980818062CFCFCF93DF93EC01888D02
:100320008823B9F0AA89BB89E889F9898C9185FD70
:1003300003C0808186FD0DC00FB607FCF7CF8C91FE
:1003400085FFF2CF808185FFEDCFCE010E941D0198
:10035000E9CFDF91CF910895833081F028F4813087
:1003600099F08230A9F008958730A9F08830C9F05B
:100370008430B1F4809180008F7D03C08091800033
:100380008F7780938000089584B58F7784BD08951A
:1003900084B58F7DFBCF8091B0008F778093B000C4
:1003A00008958091B0008F7DF9CFCF93DF93282FF0
:1003B00030E0F901E255FF4F8491F901E656FF4F15
:1003C000D491F901EA57FF4FC491CC23A1F08111D8
:1003D0000E94AC01EC2FF0E0EE0FFF1FE458FF4F3E
:1003E000A591B491EC91ED2381E090E009F480E0D7
:1003F000DF91CF91089580E090E0FACF1F93CF93E3
:10040000DF93282F30E0F901E255FF4F8491F90185
:10041000E656FF4FD491F901EA57FF4FC491CC2320
:10042000A9F0162F81110E94AC01EC2FF0E0EE0F25
:10043000FF1FEE58FF4FA591B4918FB7F894EC9140
:10044000111108C0D095DE23DC938FBFDF91CF91CF
:100450001F910895DE2BF8CFCF93DF9390E0FC013E
:10046000E656FF4F24918A579F4FFC0184918823C1
:10047000C9F090E0880F991FFC01E859FF4FA59142
:10048000B491FC01EE58FF4FC591D49161110DC09C
:100490009FB7F8948C91209582238C938881282390
:1004A00028839FBFDF91CF910895623051F49FB7A9
:1004B000F8943C91822F809583238C93E8812E2B96
:1004C000EFCF8FB7F894EC912E2B2C938FBFEACF00
:1004D0003FB7F89480911D0290911E02A0911F02D7
:1004E000B091200226B5A89B05C02F3F19F00196B8
:1004F000A11DB11D3FBFBA2FA92F982F8827BC017E
:10050000CD01620F711D811D911D42E0660F771FA5
:10051000881F991F4A95D1F708958F929F92AF92A5
:10052000BF92CF92DF92EF92FF924B015C010E944B
:1005300068026B017C010E9468026C197D098E09BA
:100540009F09683E734081059105A8F321E0821A56
:100550009108A108B10888EEC80E83E0D81EE11CFE
:10056000F11C81149104A104B10429F7FF90EF90CC
:10057000DF90CF90BF90AF909F908F900895089597
:100580002091A701260F3327331F21323105ECF4C8
:100590002091F001FC0190E080E0243069F082E0DD
:1005A0000895A091A7012191AC0149575E4FA40F76
:1005B000B52FB11D2C930196861798F38091A70152
:1005C000680F6093A70180E0089581E0089510927C
:1005D000F00181E08093EF011092CA0161E082E1B5
:1005E0000E94FE0161E083E10E94FE01E9EBF0E080
:1005F00080818E7F808380818D7F808388E480935B
:10060000B80085E48093BC000895CF93DF9391E018
:10061000909386018823B9F0C091B800D091BA00B8
:100620008091BC008A7B8093BC0060E082E10E94E4
:10063000FE0160E083E10E94FE010E94E702D09388
:10064000BA00C093B800DF91CF9108950895E0916A
:10065000280280912702E81730F4F0E0EA59FE4FB3
:10066000808190E008958FEF9FEF08959091280288
:10067000809127022FEF3FEF981748F4E92FF0E021
:10068000EA59FE4F208130E09F5F90932802C90114
:1006900008958091270290912802891B990B089553
:1006A000CF92DF92EF92FF920F931F93CF93DF933E
:1006B0007C01CB018A012091F601222389F0EB0114
:1006C0006B01C40ED51ECC15DD0569F06991D7010B
:1006D000ED91FC910190F081E02DC7010995F3CFD8
:1006E000642F0E94C002C801DF91CF911F910F912A
:1006F000FF90EF90DF90CF900895CF93DF931F92FC
:10070000CDB7DEB769832091F6012223F9F020915D
:100710002502203258F021E030E0FC0133832283AF
:1007200090E080E00F90DF91CF91089580912602B4
:10073000E82FF0E0E950FE4F998190838F5F80931E
:1007400026028093250281E090E0ECCF61E0CE01AB
:1007500001960E94C002F7CFCF92DF92EF92FF92F4
:100760000F931F93CF93DF93FC01C48121E020936B
:10077000F601C0931702109226021092250283857B
:10078000682B80ED92E00E947D03D0912502D1324A
:1007900008F092C00E9468026B017C018091F00118
:1007A000811165C082E08093F00181E08093EF01C8
:1007B0008FEF8093EE011092ED01D093EC01A7EF43
:1007C000B1E0ECECF1E080E0D81385C01092CB01F1
:1007D0008091CB01CC0FC82BC093CB018091CA0173
:1007E000813009F07CC01092CA010E9468026B013E
:1007F0007C018091CB018093BB008091F2019091AC
:10080000F301A091F401B091F501892B8A2B8B2B78
:1008100099F00E9468020091F2011091F301209179
:10082000F4013091F5016C197D098E099F090617B5
:10083000170728073907E0F18091BC0083FDD9CF65
:1008400085EC8093BC000E9468026B017C01809162
:10085000F001823009F445C08091EE018F3F61F1D3
:100860008091EE01803241F18091EE0125C08091AE
:10087000F2019091F301A091F401B091F501892B5F
:100880008A2B8B2B09F48ACF0E9468020091F20117
:100890001091F3012091F4013091F5016C197D095B
:1008A0008E099F09061717072807390708F076CF22
:1008B0008091F1010E9405031092260210922502F8
:1008C0001092F601DF91CF911F910F91FF90EF9061
:1008D000DF90CF9008959D9191938F5F75CF85EEB6
:1008E000B0CF8091F2019091F301A091F401B09109
:1008F000F501892B8A2B8B2B09F4A9CF0E94680262
:100900000091F2011091F3012091F4013091F50171
:100910006C197D098E099F090617170728073907E3
:1009200008F095CFC5CF90E080E008958F929F9218
:10093000AF92BF920F931F93CF93DF93CDB7DEB7E4
:10094000A1970FB6F894DEBF0FBECDBF19A24230FB
:1009500008F44AE08E010F5D1F4F842E912CB12CBC
:10096000A12CA50194010E94150AE62FB901CA0124
:10097000EA3044F5E05DD801EE938D01232B242B62
:10098000252B79F790E080E0109769F0FD01019048
:100990000020E9F73197AF014A1B5B0BBD018CEDDD
:1009A00092E00E949F00A1960FB6F894DEBF0FBEA2
:1009B000CDBFDF91CF911F910F91BF90AF909F90CE
:1009C0008F900895E95CD7CFFC0101900020E9F7F2
:1009D0003197AF01481B590BBC018CED92E00C9490
:1009E0009F000F931F93CF938C01C62F0E94AC03DF
:1009F0006C2F6460C8010E94AC036C2F6B7FC80130
:100A00000E94AC0383EC90E00197F1F7CF911F9126
:100A10000F9108950F931F93CF93DF938C01D62FDF
:100A2000C42F607F642B0E94F10480E1D89FB00145
:100A300011246C2BC801DF91CF911F910F910C9461
:100A4000F104CF93DF93CDB7DEB728970FB6F894B4
:100A5000DEBF0FBECDBF98E0E0E0F1E0DE01119611
:100A600001900D929A95E1F79091E402961708F49F
:100A70006FEF262F30E0220F331F41E050E04C0F84
:100A80005D1F240F351FF9016081680F606840E029
:100A90008CED92E028960FB6F894DEBF0FBECDBF66
:100AA000DF91CF910C940A0541E00E940A0581E094
:100AB00090E00895CF92DF92EF92FF926C01990F30
:100AC000EE08FF08F7FE16C041E06DE28CED92E003
:100AD0000E940A0566277727CB016C197D098E09CC
:100AE0009F094AE00E9496040196FF90EF90DF90E4
:100AF000CF9008954AE0C701B601FF90EF90DF90D4
:100B0000CF900C94960485ED8093BC008091F20107
:100B10009091F301A091F401B091F5010796A11D08
:100B2000B11D23E0B695A795979587952A95D1F79E
:100B30002091BC0024FD03C01092F0010895409163
:100B4000F2015091F3016091F4017091F501452B90
:100B5000462B472B69F30097A105B10541F025E32A
:100B60002A95F1F700000197A109B109E1CF809121
:100B7000F1010C9405031F920F920FB60F921124EE
:100B80002F933F934F935F936F937F938F939F9395
:100B9000AF93BF93EF93FF9383E392E00E941D0115
:100BA000FF91EF91BF91AF919F918F917F916F9145
:100BB0005F914F913F912F910F900FBE0F901F901B
:100BC00018951F920F920FB60F9211242F938F93A7
:100BD0009F93EF93FF93E0914302F0914402808151
:100BE000E0914902F0914A0282FD1BC09081809100
:100BF0004C028F5F8F7320914D02821741F0E0917C
:100C00004C02F0E0ED5CFD4F958F80934C02FF911C
:100C1000EF919F918F912F910F900FBE0F901F908A
:100C200018958081F4CF1F920F920FB60F92112466
:100C30002F933F938F939F93AF93BF93809119020C
:100C400090911A02A0911B02B0911C0230911802DF
:100C500023E0230F2D3758F50196A11DB11D2093D8
:100C600018028093190290931A02A0931B02B0936A
:100C70001C0280911D0290911E02A0911F02B09152
:100C800020020196A11DB11D80931D0290931E02AA
:100C9000A0931F02B0932002BF91AF919F918F91BB
:100CA0003F912F910F900FBE0F901F90189526E83F
:100CB000230F0296A11DB11DD2CF1F920F920FB626
:100CC0000F9211242F933F934F935F936F937F93D2
:100CD0008F939F93AF93BF93EF93FF938091B9004E
:100CE000887F803609F44AC0F0F5883209F4A7C03D
:100CF00018F5803109F49BC0B8F4882309F4F9C0D1
:100D0000883009F494C0FF91EF91BF91AF919F910A
:100D10008F917F916F915F914F913F912F910F90A4
:100D20000FBE0F901F901895883109F488C080324B
:100D300051F78093EE0114C0803409F49DC040F453
:100D40008033B9F38833F9F68093EE0185ECB0C0B7
:100D5000803509F485C0883509F496C0883499F641
:100D60000E948305D0CF883909F48CC038F58837C4
:100D700029F050F4883611F0803729F683E080930B
:100D8000F0011092C90157C0883809F47BC080393E
:100D900019F0803809F0B7CF8091C901803208F08E
:100DA00071C0E091C90181E08E0F8093C9018091EB
:100DB000BB00F0E0E755FE4F80833DC0803B39F03B
:100DC000E0F4803A09F479C0883A09F09CCF84E0D5
:100DD0008093F0011092A8011092A701E0912302E4
:100DE000F091240209958091A70181110FC081E043
:100DF0008093A7011092870109C0803C09F4A6CF17
:100E0000883C09F4A3CF883B09F07DCFE091A8018D
:100E100081E08E0F8093A801F0E0E957FE4F8081BA
:100E20008093BB009091A8018091A70129C0809177
:100E3000CB018093BB0085EC8093BC0064CF909184
:100E4000ED018091EC01981758F5E091ED0181E0FA
:100E50008E0F8093ED01F0E0E453FE4F8081E9CFE7
:100E6000E091ED0181E08E0F8093ED018091BB0058
:100E7000F0E0E453FE4F80839091ED018091EC010E
:100E80009817C8F285E8D8CFE091ED0181E08E0F88
:100E90008093ED018091BB00F0E0E453FE4F80832E
:100EA0008091EF0181115CCF81E08093CA0184EAD7
:100EB0008093BC001092F00126CF85EC8093BC009B
:100EC0001092F0018091C901803230F4E091C901A3
:100ED000F0E0E755FE4F10826091C90170E0E091AB
:100EE0002102F091220289EA91E009951092C9014C
:100EF0000ACF1092EE0134CFE3E3F2E013821282C4
:100F000088EE93E0A0E0B0E084839583A683B78366
:100F10002CE031E03183208325EC30E035872487D5
:100F200024EC30E03787268720EC30E0318B208BB3
:100F300021EC30E0338B228B22EC30E0358B248B9C
:100F400026EC30E0378B268B118E128E138E148E8A
:100F5000E0EDF2E01382128284839583A683B78347
:100F60008EE191E091838083ECEDF2E013821282B6
:100F700080E391E09183808387E2848380E18187AD
:100F800082E0828713860895789484B5826084BD58
:100F900084B5816084BD85B5826085BD85B581607D
:100FA00085BD80916E00816080936E0010928100FB
:100FB00080918100826080938100809181008160B6
:100FC0008093810080918000816080938000809177
:100FD000B10084608093B1008091B0008160809303
:100FE000B00080917A00846080937A0080917A00CA
:100FF000826080937A0080917A00816080937A0089
:1010000080917A00806880937A001092C100E0910C
:101010004302F091440282E08083E0913F02F0912C
:1010200040021082E0914102F09142028FEC8083F5
:1010300010924B02E0914702F091480286E08083D3
:10104000E0914502F0914602808180618083E091C9
:101050004502F0914602808188608083E0914502DC
:10106000F0914602808180688083E0914502F09192
:10107000460280818F7D808360E08CE00E942C029C
:1010800060E08DE00E942C0262E08CE00E942C0265
:1010900062E08DE00E942C0261E083E00E942C025D
:1010A0001092280210922702109226021092250216
:1010B0000E94E7028DE990E090932402809323023E
:1010C0008EE990E090932202809321021092E10237
:1010D0008091E602823018F098E09093E1028093CC
:1010E000E40262E370E080E090E00E948D02609193
:1010F000E7028CED92E00E94AC0368EE73E080E0C2
:1011000090E00E948D0260E38CED92E00E94F10479
:10111000CBE4D6E4CE010197F1F760E38CED92E0E9
:101120000E94F1042197F1F760E38CED92E00E94B8
:10113000F10483E592E00197F1F760E28CED92E033
:101140000E94F1046091E102606240E08CED92E067
:101150000E940A0584E08093E20240E06CE08CED9E
:1011600092E00E940A0540E061E08CED92E00E946E
:101170000A05CBE3DFE1CE010197F1F782E080932E
:10118000E30240E066E08CED92E00E940A0540E058
:1011900062E08CED92E00E940A052197F1F788E069
:1011A0008093E70260E08CED92E00E94AC0360E087
:1011B00080E00E94210588E391E00E94E40490E031
:1011C00080E00E94D509682F70E070932A02609336
:1011D0002902072E000C880B990B0E94E40A6093E9
:1011E0002D0270932E0280932F02909330028BE396
:1011F000C82E8FE1D82E04E110E09EED892E9924AF
:101200009394A12CB12C20E0E22E20E0F22E0E943B
:101210008C00C4E1D0E00E948C002091310230911A
:101220003202820F931F909332028093310262E365
:1012300070E080E090E00E948D028CE00E94D50179
:10124000892BB1F410922D0210922E0210922F02CF
:101250001092300260E090E080E00E94DD0940E002
:1012600061E08CED92E00E940A05C6010197F1F75A
:101270008DE00E94D501219771F680913102909105
:101280003202B8010E94DD0B10923202109231023C
:101290009B01770F440B550B2C5031094109510923
:1012A000AAE7B1E00E940A0AA50194010E94EB0995
:1012B00030932C0220932B0260E080E0121613067C
:1012C0000CF06AC00E94210583E491E00E94E404CE
:1012D00080912B0290912C020E945A058BE491E0A0
:1012E0000E94E40480912B0290912C028436910597
:1012F00044F460E089E00E9421058FE491E00E94BF
:10130000E40460912B0270912C02072E000C880BD4
:10131000990B0E94E40A2BEB32EA41E959E30E945F
:10132000700B20912D0230912E0240912F0250918E
:1013300030020E94470A60932D0270932E02809320
:101340002F02909330020E94B30A90E080E00E9446
:10135000DD0990E080E00E94D50990E090932A0298
:101360008093290261E080E00E9421058EE591E0F2
:101370000E94E4048091290290912A020E945A0559
:10138000E114F10409F443CF0E940901882309F410
:101390003ECF0E9400003BCF0E94210510922C02FC
:1013A00010922B0281E591E0AACFF999FECF92BD70
:1013B00081BDF89A992780B50895262FF999FECF17
:1013C0001FBA92BD81BD20BD0FB6F894FA9AF99A62
:1013D0000FBE01960895052E97FB1EF400940E94FF
:1013E000020A57FD07D00E94150A07FC03D04EF4ED
:1013F0000C94020A50954095309521953F4F4F4FE0
:101400005F4F089590958095709561957F4F8F4FB0
:101410009F4F08950E94370AA59F900DB49F900D8D
:10142000A49F800D911D11240895A1E21A2EAA1BDC
:10143000BB1BFD010DC0AA1FBB1FEE1FFF1FA21784
:10144000B307E407F50720F0A21BB30BE40BF50B81
:10145000661F771F881F991F1A9469F7609570950A
:10146000809590959B01AC01BD01CF010895A29F8D
:10147000B001B39FC001A39F700D811D1124911D68
:10148000B29F700D811D1124911D08955058BB27E6
:10149000AA270E945E0A0C94360B0E94280B38F093
:1014A0000E942F0B20F039F49F3F19F426F40C947E
:1014B000250B0EF4E095E7FB0C941F0BE92F0E941F
:1014C000470B58F3BA17620773078407950720F094
:1014D00079F4A6F50C94690B0EF4E0950B2EBA2F57
:1014E000A02D0B01B90190010C01CA01A00111242A
:1014F000FF27591B99F0593F50F4503E68F11A16D6
:10150000F040A22F232F342F4427585FF3CF469566
:1015100037952795A795F0405395C9F77EF41F1688
:10152000BA0B620B730B840BBAF09150A1F0FF0F52
:10153000BB1F661F771F881FC2F70EC0BA0F621F3E
:10154000731F841F48F4879577956795B795F7952E
:101550009E3F08F0B0CF9395880F08F09927EE0FC3
:101560009795879508950E944F0B88F09F5798F0A4
:10157000B92F9927B751B0F0E1F0660F771F881F98
:10158000991F1AF0BA95C9F714C0B13091F00E94B2
:10159000690BB1E008950C94690B672F782F8827A9
:1015A000B85F39F0B93FCCF3869577956795B395D9
:1015B000D9F73EF490958095709561957F4F8F4F48
:1015C0009F4F0895E89409C097FB3EF4909580954D
:1015D000709561957F4F8F4F9F4F9923A9F0F92FF9
:1015E00096E9BB279395F695879577956795B79577
:1015F000F111F8CFFAF4BB0F11F460FF1BC06F5F5D
:101600007F4F8F4F9F4F16C0882311F096E911C06E
:10161000772321F09EE8872F762F05C0662371F08F
:1016200096E8862F70E060E02AF09A95660F771FA3
:10163000881FDAF7880F9695879597F9089597F997
:101640009F6780E870E060E008959FEF80EC089568
:1016500000240A9416161706180609060895002491
:101660000A9412161306140605060895092E03940B
:10167000000C11F4882352F0BB0F40F4BF2B11F47F
:1016800060FF04C06F5F7F4F8F4F9F4F089557FDDE
:101690009058440F551F59F05F3F71F04795880FE0
:1016A00097FB991F61F09F3F79F087950895121677
:1016B00013061406551FF2CF4695F1DF08C0161623
:1016C00017061806991FF1CF8695710561050894D4
:1016D0000895E894BB2766277727CB0197F90895EB
:1016E0000E94830B0C94360B0E94280B38F00E944A
:1016F0002F0B20F0952311F00C941F0B0C94250B4D
:1017000011240C946A0B0E94470B70F3959FC1F350
:10171000950F50E0551F629FF001729FBB27F00D9F
:10172000B11D639FAA27F00DB11DAA1F649F6627F4
:10173000B00DA11D661F829F2227B00DA11D621F43
:10174000739FB00DA11D621F839FA00D611D221FFD
:10175000749F3327A00D611D231F849F600D211DE1
:10176000822F762F6A2F11249F5750409AF0F1F064
:1017700088234AF0EE0FFF1FBB1F661F771F881FCD
:1017800091505040A9F79E3F510580F00C941F0BDB
:101790000C946A0B5F3FE4F3983ED4F386957795FB
:1017A0006795B795F795E7959F5FC1F7FE2B880F73
:1017B000911D9695879597F9089597FB072E16F436
:1017C000009407D077FD09D00E94F10B07FC05D0EB
:1017D0003EF4909581959F4F0895709561957F4F48
:1017E0000895AA1BBB1B51E107C0AA1FBB1FA61768
:1017F000B70710F0A61BB70B881F991F5A95A9F7BA
:1018000080959095BC01CD010895EE0FFF1F0590C6
:0A181000F491E02D0994F894FFCF45
:10181A000000400014005400000000003F019F0037
:10182A00CC008C01FD00DB00EF00000000007D030E
:10183A0050039304260349033603270300000000DC
:10184A0054059F009304BF02466C6F77204D657460
:10185A00657200466C6F77203A20002020202020F5
:10186A0000576972696E67204572726F7200566F0F
:06187A006C203A20000082
:00000001FF
